S00F000051325F4750494F2E7372656304
S11300000C9434000C943E000C943E000C943E007E
S11300100C943E000C943E000C943E000C943E0064
S11300200C943E000C943E000C943E000C943E0054
S11300300C943E000C943E000C943E000C943E0044
S11300400C943E000C943E000C943E000C943E0034
S11300500C943E000C943E000C943E000C943E0024
S11300600C943E000C943E0011241FBECFEFD8E048
S1130070DEBFCDBF0E9440000C9467000C940000CA
S113008084B1836084B98AB18B7F8AB98BB184606F
S11300908BB985B1816085B985B18D7F85B980E0E3
S11300A001C080E04A99FDCF2FEF39EF90E0215055
S11300B030409040E1F700C000004A99F3CF81112D
S11300C0F1CF95B183E0892785B981E0EBCFF8942E
S10500D0FFCF5C
S9030000FC
